:100000000C942A000C943F000C943F000C943F0089
:100010000C943F000C943F000C943F000C943F0064
:100020000C943F000C943F000C943F000C943F0054
:100030000C943F000C943F000C943F000C943F0044
:100040000C943F000C943F000C943F000C943F0034
:100050000C943F0011241FBECFE5D8E0DEBFCDBF1A
:1000600012E0A0E6B0E0E8EBFBE602C005900D92DE
:10007000A430B107D9F70E9432240C94DA350C94DD
:100080000000EF92FF920F931F937B018C0120E001
:1000900030E040E05FE40E94410388238CF0C80117
:1000A000B70120E030E040E05FE40E94B9010E9427
:1000B000A1039B01AC01205030404040504806C095
:1000C000C801B7010E94A1039B01AC01B901CA019B
:1000D0001F910F91FF90EF900895A0E0B0E0E3E74B
:1000E000F0E00C945E35DC012B01FA019C9192301A
:1000F00008F439C1EB018881823008F433C19430AF
:1001000069F4843009F02FC111969C91119789816F
:10011000981709F428C1A6EFB1E025C1843009F48D
:1001200021C18230A9F4923009F01DC19A01AD01BC
:1001300088E0EA010990AE01E90109929E0181502F
:10014000C1F7E201898111969C918923818308C1BD
:10015000923009F407C112962D903C901397EB0151
:100160008A819B811496AD90BD90CD90DC901797BD
:10017000EC80FD800E811F819101281B390BB90194
:1001800037FF04C066277727621B730B6032710547
:100190000CF061C0121613066CF537014801062EEB
:1001A00004C096948794779467940A94D2F721E0D8
:1001B00030E040E050E004C0220F331F441F551FC1
:1001C0006A95D2F721503040404050402E213F21C7
:1001D00040235123211531054105510521F021E02E
:1001E00030E040E050E079018A01E628F72808294C
:1001F00019293CC0232BD1F1260E371E35014601AB
:10020000062E04C096948794779467940A94D2F744
:1002100021E030E040E050E004C0220F331F441FD3
:10022000551F6A95D2F721503040404050402A2156
:100230003B214C215D21211531054105510521F05E
:1002400021E030E040E050E059016A01A628B728DB
:10025000C828D9280BC0821593052CF01C01AA24AC
:10026000BB24650103C0EE24FF24870111969C91F5
:10027000D20111968C91981709F445C0992339F051
:10028000A80197012A193B094C095D0906C0A6017E
:1002900095012E193F09400B510B57FD08C01182E3
:1002A0003382228224833583468357831DC081E0B5
:1002B00081833382228288279927DC01821B930B5A
:1002C000A40BB50B84839583A683B7830DC0220F3F
:1002D000331F441F551F24833583468357838281F0
:1002E000938101979383828324813581468157814D
:1002F000DA01C9010197A109B1098F5F9F4FAF4F83
:10030000BF4328F30BC0918333822282EA0CFB1C8B
:100310000C1D1D1DE482F5820683178383E0808314
:10032000248135814681578157FF1AC0C901AA2708
:1003300097FDA095BA2F81709070A070B0705695FF
:10034000479537952795822B932BA42BB52B848328
:100350009583A683B7838281938101969383828359
:10036000DF0101C0D201CD01CDB7DEB7E2E10C94CF
:100370007A35A0E2B0E0EFEBF1E00C946A356983E6
:100380007A838B839C832D833E834F835887E9E058
:10039000EE2EF12CEC0EFD1ECE010196B7010E944F
:1003A000CA048E010F5E1F4FCE010596B8010E9450
:1003B000CA048A8991E089278A8BC701B801AE01F6
:1003C000475E5F4F0E946D000E94F503A096E6E035
:1003D0000C948635A0E2B0E0E0EFF1E00C946A35D1
:1003E00069837A838B839C832D833E834F835887D5
:1003F000F9E0EF2EF12CEC0EFD1ECE010196B701B7
:100400000E94CA048E010F5E1F4FCE010596B801EF
:100410000E94CA04C701B801AE01475E5F4F0E9447
:100420006D000E94F503A096E6E00C948635A0E2EC
:10043000B0E0EDE1F2E00C945E3569837A838B8362
:100440009C832D833E834F835887CE010196BE0146
:10045000675F7F4F0E94CA04CE010596BE016F5EA2
:100460007F4F0E94CA049985923088F08989823032
:10047000C8F0943019F4823051F404C0843029F467
:10048000923081F486EF91E0C6C0923049F420E0CA
:100490009A858A89981321E02A87CE010996BBC0E4
:1004A000823049F420E09A858A89981321E02A8BCA
:1004B000CE014196B0C02D843E844F8458886D880B
:1004C0007E888F88988CEE24FF248701AA24BB2481
:1004D000650140E050E060E070E0E0E0F0E0C10184
:1004E00081709070892BE9F0E60CF71C081D191D2E
:1004F0009A01AB012A0D3B1D4C1D5D1D80E090E073
:10050000A0E0B0E0E614F7040805190520F481E046
:1005100090E0A0E0B0E0BA01A901480F591F6A1F9E
:100520007B1FAA0CBB1CCC1CDD1C97FE08C081E005
:1005300090E0A0E0B0E0A82AB92ACA2ADB2A3196C6
:10054000E032F10549F0660C771C881C991C569422
:10055000479437942794C3CFFA85EA892B893C893D
:100560008B859C85280F391F2E5F3F4F17C0CA010E
:1005700081709070892B61F016950795F794E79438
:1005800080E090E0A0E0B0E8E82AF92A0A2B1B2BD3
:1005900076956795579547952F5F3F4F77FDE7CF46
:1005A0000CC0440F551F661F771F17FD4160EE0CEE
:1005B000FF1C001F111F21503040403090E05907B0
:1005C00090E0690790E4790760F32B8F3C8FDB01A3
:1005D000CA018F779070A070B07080349105A1052A
:1005E000B10561F447FD0AC0E114F10401051105EC
:1005F00029F0405C5F4F6F4F7F4F40781A8EFE1797
:1006000011F081E08A8F4D8F5E8F6F8F78A383E02A
:10061000898FCE0149960E94F503A096E2E10C94E1
:100620007A35A8E1B0E0E7E1F3E00C946A3569833C
:100630007A838B839C832D833E834F83588789E005
:10064000E82EF12CEC0EFD1ECE010196B7010E94A2
:10065000CA048E010F5E1F4FCE010596B8010E949D
:10066000CA048985823040F08989823028F0C70128
:10067000B8010E94420501C08FEF6896E6E00C9435
:100680008635A8E1B0E0E7E4F3E00C946A356983CD
:100690007A838B839C832D833E834F83588789E0A5
:1006A000E82EF12CEC0EFD1ECE010196B7010E9442
:1006B000CA048E010F5E1F4FCE010596B8010E943D
:1006C000CA048985823040F08989823028F0C701C8
:1006D000B8010E94420501C08FEF6896E6E00C94D5
:1006E0008635A8E1B0E0E7E7F3E00C946A3569836A
:1006F0007A838B839C832D833E834F83588789E045
:10070000E82EF12CEC0EFD1ECE010196B7010E94E1
:10071000CA048E010F5E1F4FCE010596B8010E94DC
:10072000CA048985823040F08989823028F0C70167
:10073000B8010E94420501C081E06896E6E00C9491
:100740008635ACE0B0E0E7EAF3E00C946E356983FF
:100750007A838B839C83CE010196BE016B5F7F4FB2
:100760000E94CA048D81823061F1823050F1843060
:1007700021F48E81882351F12EC02F81388537FDD9
:1007800020C06E812F3131051CF06623F9F023C0A3
:100790008EE190E0821B930B29853A854B855C8521
:1007A00004C056954795379527958A95D2F76623C5
:1007B000B1F050954095309521953F4F4F4F5F4F89
:1007C0000EC020E030E040E050E009C02FEF3FEFE6
:1007D0004FEF5FE704C020E030E040E050E8B901AF
:1007E000CA012C96E2E00C948A35DF92EF92FF92D8
:1007F0000F931F93FC01E480F58006811781D1805F
:100800008081823048F480E090E0A0E1B0E0E82A06
:10081000F92A0A2B1B2BA5C0843009F49FC0823013
:1008200021F4EE24FF24870105C0E114F104010541
:10083000110519F4E0E0F0E096C0628173819FEF4A
:10084000623879070CF05BC022E83FEF261B370BBC
:100850002A3131052CF020E030E040E050E02AC0A1
:10086000B801A701022E04C0769567955795479564
:100870000A94D2F781E090E0A0E0B0E004C0880FD5
:10088000991FAA1FBB1F2A95D2F70197A109B10989
:100890008E219F21A023B1230097A105B10521F04E
:1008A00081E090E0A0E0B0E09A01AB01282B392B69
:1008B0004A2B5B2BDA01C9018F779070A070B07062
:1008C00080349105A105B10539F427FF09C0205CEA
:1008D0003F4F4F4F5F4F04C0215C3F4F4F4F5F4F23
:1008E000E0E0F0E02030A0E03A07A0E04A07A0E412
:1008F0005A0710F0E1E0F0E079018A0127C0603882
:10090000710564F5FB01E158FF4FD801C7018F77EE
:100910009070A070B07080349105A105B10539F4D4
:10092000E7FE0DC080E490E0A0E0B0E004C08FE3FB
:1009300090E0A0E0B0E0E80EF91E0A1F1B1F17FFB1
:1009400005C016950795F794E794319687E01695BC
:100950000795F794E7948A95D1F705C0EE24FF2414
:100960008701EFEFF0E06E2F679566276795902F70
:100970009F77D794DD24D7948E2F8695492F462BC9
:10098000582F5D29B701CA011F910F91FF90EF9079
:10099000DF900895FC01DB01408151812281622FAB
:1009A0006F7770E0221F2227221F9381892F880FE3
:1009B000822B282F30E0991F9927991F11969C931D
:1009C000119721153105A9F54115510561057105ED
:1009D00011F482E037C082E89FEF13969C938E93C8
:1009E00012979A01AB0167E0220F331F441F551F76
:1009F0006A95D1F783E08C930DC0220F331F441FFB
:100A0000551F12968D919C911397019713969C9365
:100A10008E931297203080E0380780E0480780E40A
:100A2000580758F314962D933D934D935C93179765
:100A300008952F3F310579F4411551056105710580
:100A400019F484E08C93089564FF03C081E08C93D3
:100A500012C01C9210C02F57304013963C932E9317
:100A6000129783E08C9387E0440F551F661F771F12
:100A70008A95D1F7706414964D935D936D937C9332
:100A8000179708951F93DC01FB019C91923008F4A5
:100A900047C08081823008F443C0943051F41196ED
:100AA0001C91843099F58181682F70E0611B710978
:100AB0003FC0843021F0923031F48230B9F181812D
:100AC000882389F12DC011961C9111978230F1F085
:100AD00081811817D9F412962D913C911397828138
:100AE00093818217930794F028173907BCF0149666
:100AF0008D919D910D90BC91A02D248135814681D1
:100B00005781281739074A075B0718F4112341F06A
:100B10000AC082179307A407B50740F4112319F000
:100B200061E070E005C06FEF7FEF02C060E070E051
:100B3000CB011F910895DF93CF93CDB7DEB76297B6
:100B40000FB6F894DEBF0FBECDBF9A8B898B188A83
:100B500081E060E00E94C2230E94F6178F8780E048
:100B600090E0AAEFB3E48B879C87AD87BE876B8547
:100B70007C858D859E8520E030E04AE755E40E9423
:100B80001702DC01CB018F839887A987BA876F8111
:100B9000788589859A8520E030E040E85FE30E940F
:100BA000710388232CF481E090E09E838D833FC005
:100BB0006F81788589859A8520E03FEF4FE757E47C
:100BC0000E94110318164CF56B857C858D859E85DA
:100BD00020E030E040E251E40E941702DC01CB014A
:100BE000BC01CD010E944100DC01CB019E838D83BD
:100BF0000FC080E991E09C838B838B819C8101975E
:100C0000F1F79C838B838D819E8101979E838D83D9
:100C10008D819E81009769F714C06F8178858985E1
:100C20009A850E944100DC01CB019E838D838D81DA
:100C30009E819A83898389819A810197F1F79A83AA
:100C400089838F858F3299F48889882309F484CF2A
:100C500088898150888B81E068890E94C22380E264
:100C60000E941C1F81E068890E94C22375CF8F8576
:100C7000803299F48889282F30E089899A89FC018B
:100C8000E20FF31F1082888962960FB6F894DEBFD8
:100C90000FBECDBFCF91DF9108958F858A3209F4C1
:100CA0005BCF8F858D3209F457CF8F858B3209F456
:100CB00053CF8F858D3309F44FCF8F85882F90E0E8
:100CC0000E9405248889282F30E089899A89FC01AF
:100CD000E20FF31F8F85808388898F5F888B3CCFDD
:100CE000DF93CF93CDB7DEB72F970FB6F894DEBF63
:100CF0000FBECDBF8F870E94282480E690E00E941F
:100D0000972381E060E00E94C2238F85882F90E0C6
:100D10000E94052480E790E00E94972380E090E8FD
:100D2000ABE3B5E48B879C87AD87BE876B857C85FD
:100D30008D859E8520E030E04AE755E40E94170249
:100D4000DC01CB018F839887A987BA876F8178856B
:100D500089859A8520E030E040E85FE30E947103D6
:100D600088232CF481E090E09E838D833FC06F81C7
:100D7000788589859A8520E03FEF4FE757E40E9408
:100D8000110318164CF56B857C858D859E8520E0BA
:100D900030E040E251E40E941702DC01CB01BC01CB
:100DA000CD010E944100DC01CB019E838D830FC0E9
:100DB00080E991E09C838B838B819C810197F1F783
:100DC0009C838B838D819E8101979E838D838D81F2
:100DD0009E81009769F714C06F81788589859A850F
:100DE0000E944100DC01CB019E838D838D819E8119
:100DF0009A83898389819A810197F1F79A838983FC
:100E00000E9428242F960FB6F894DEBF0FBECDBFE8
:100E1000CF91DF910895DF93CF9300D000D0CDB76D
:100E2000DEB78C8381E090E09B838A83198209C0BE
:100E30008A819B81880F991F9B838A8389818F5F19
:100E4000898399818C81981798F38A819B810F906F
:100E50000F900F900F90CF91DF9108950F93DF9334
:100E6000CF93CDB7DEB76D970FB6F894DEBF0FBE48
:100E7000CDBF6C8B7D8B8E8B9F8B288F398F4A8F4C
:100E80005B8F0C8F8C8D86958F878C899D89AE8921
:100E9000BF89892F9A2FAB2FBB27982F909581E080
:100EA000692F0E942917988D81E0692F0E946D1784
:100EB0008C89982F909583E0692F0E942917888D3F
:100EC000998DAA8DBB8D892F9A2FAB2FBB27982F79
:100ED00083E0692F0E946D1780E090E0A8E4B2E4FF
:100EE0008B879C87AD87BE876B857C858D859E852E
:100EF00020E030E04AE755E40E941702DC01CB0114
:100F00008F839887A987BA876F81788589859A8525
:100F100020E030E040E85FE30E94710388232CF476
:100F200081E090E09E838D833FC06F8178858985C5
:100F30009A8520E03FEF4FE757E40E94110318160F
:100F40004CF56B857C858D859E8520E030E040E208
:100F500051E40E941702DC01CB01BC01CD010E94CB
:100F60004100DC01CB019E838D830FC080E991E0BD
:100F70009C838B838B819C810197F1F79C838B836E
:100F80008D819E8101979E838D838D819E810097A7
:100F900069F714C06F81788589859A850E94410020
:100FA000DC01CB019E838D838D819E819A83898311
:100FB00089819A810197F1F79A83898381E00E9460
:100FC000B117282F30E040E050E0888D998DAA8D30
:100FD000BB8D9070A070B070281739074A075B0767
:100FE000E1F483E00E94B117282F30E040E050E0A8
:100FF000888D998DAA8DBB8D8070A070B070892F5F
:101000009A2FAB2FBB27281739074A075B0729F40C
:101010000E94282481E08D8F01C01D8E8D8D6D96DC
:101020000FB6F894DEBF0FBECDBFCF91DF910F9109
:1010300008950F931F93DF93CF93CDB7DEB7CA5DAB
:10104000D0400FB6F894DEBF0FBECDBFFE01E15316
:10105000FF4F6083718382839383FE01ED52FF4FC4
:1010600051834083FE01EB52FF4F31832083FE0109
:10107000E953FF4F11821082FE01EB53FF4F82E0D4
:1010800090E091838083FE01E753FF4F118210822D
:10109000FE01E553FF4F10821182128213829E01DE
:1010A00029533F4F60E070E080E090E0A9010E948A
:1010B0003214FE01EF53FF4F80E090E0A0E2B1E474
:1010C00080839183A283B3838E0103541F4FFE015B
:1010D000EF53FF4F608171818281938120E030E086
:1010E0004AE755E40E941702DC01CB01F801808336
:1010F0009183A283B383FE01E354FF4F608171812A
:101100008281938120E030E040E85FE30E94710338
:10111000882344F4FE01E554FF4F81E090E0918381
:10112000808364C0FE01E354FF4F6081718182813E
:10113000938120E03FEF4FE757E40E941103181618
:101140000CF043C0FE01EF53FF4F6081718182813B
:10115000938120E030E040E251E40E941702DC017C
:10116000CB018E0105541F4FBC01CD010E944100EF
:10117000DC01CB01F801918380831FC0FE01E7549D
:10118000FF4F80E991E091838083FE01E754FF4F98
:10119000808191810197F1F7FE01E754FF4F918320
:1011A0008083DE01A554BF4FFE01E554FF4F8081CF
:1011B0009181019711969C938E93FE01E554FF4F08
:1011C000808191810097D1F627C08E0105541F4F71
:1011D000FE01E354FF4F60817181828193810E94FF
:1011E0004100DC01CB01F80191838083DE01A95429
:1011F000BF4FFE01E554FF4F808191818D939C93F9
:10120000FE01E954FF4F808191810197F1F7FE01C2
:10121000E954FF4F91838083FE01E953FF4F8081A2
:101220009181982F8827FE01E953FF4F9183808396
:101230009E0129533F4F61E070E080E090E0A901FA
:101240000E943214FE01ED54FF4F80E090E0A0E2D6
:10125000B1E480839183A283B3838E0101551F4F34
:10126000FE01ED54FF4F608171818281938120E006
:1012700030E04AE755E40E941702DC01CB01F80197
:1012800080839183A283B383FE01E155FF4F608188
:1012900071818281938120E030E040E85FE30E9429
:1012A0007103882344F4FE01E355FF4F81E090E091
:1012B0009183808364C0FE01E155FF4F608171819D
:1012C0008281938120E03FEF4FE757E40E941103B2
:1012D00018160CF043C0FE01ED54FF4F6081718180
:1012E0008281938120E030E040E251E40E941702C5
:1012F000DC01CB018E0103551F4FBC01CD010E94C3
:101300004100DC01CB01F801918380831FC0FE0105
:10131000E555FF4F80E991E091838083FE01E5551B
:10132000FF4F808191810197F1F7FE01E555FF4F55
:1013300091838083DE01A355BF4FFE01E355FF4F2C
:1013400080819181019711969C938E93FE01E355C4
:10135000FF4F808191810097D1F627C08E01035500
:101360001F4FFE01E155FF4F6081718182819381A2
:101370000E944100DC01CB01F80191838083DE01F2
:10138000A755BF4FFE01E355FF4F808191818D939B
:101390009C93FE01E755FF4F808191810197F1F702
:1013A000FE01E755FF4F91838083FE01EB53FF4F12
:1013B000808191810396CC01A0E0B0E09E0127538B
:1013C0003F4FBC01CD01A9010E943214FE01EB5533
:1013D000FF4F80E090E0A0E2B1E480839183A2839C
:1013E000B3838E010F551F4FFE01EB55FF4F6081F8
:1013F00071818281938120E030E04AE755E40E94C8
:101400001702DC01CB01F80180839183A283B383AF
:10141000FE01EF55FF4F608171818281938120E051
:1014200030E040E85FE30E947103882344F4FE014A
:10143000E156FF4F81E090E09183808364C0FE011C
:10144000EF55FF4F608171818281938120E03FEFF2
:101450004FE757E40E94110318160CF043C0FE0139
:10146000EB55FF4F608171818281938120E030E0F4
:1014700040E251E40E941702DC01CB018E010156CB
:101480001F4FBC01CD010E944100DC01CB01F801DE
:10149000918380831FC0FE01E356FF4F80E991E0F6
:1014A00091838083FE01E356FF4F808191810197F4
:1014B000F1F7FE01E356FF4F91838083DE01A156D1
:1014C000BF4FFE01E156FF4F808191810197119638
:1014D0009C938E93FE01E156FF4F8081918100978E
:1014E000D1F627C08E0101561F4FFE01EF55FF4F69
:1014F00060817181828193810E944100DC01CB0176
:10150000F80191838083DE01A556BF4FFE01E156AD
:10151000FF4F808191818D939C93FE01E556FF4F93
:10152000808191810197F1F7FE01E556FF4F91838C
:101530008083FE01E753FF4F80819181982F882798
:10154000FE01E753FF4F91838083FE01EB53FF4F72
:10155000808191810496CC01A0E0B0E09E012753E8
:101560003F4FBC01CD01A9010E943214FE01E95692
:10157000FF4F80E090E0A0E2B1E480839183A283FA
:10158000B3838E010D561F4FFE01E956FF4F608158
:1015900071818281938120E030E04AE755E40E9426
:1015A0001702DC01CB01F80180839183A283B3830E
:1015B000FE01ED56FF4F608171818281938120E0B1
:1015C00030E040E85FE30E947103882344F4FE01A9
:1015D000EF56FF4F81E090E09183808364C0FE016D
:1015E000ED56FF4F608171818281938120E03FEF52
:1015F0004FE757E40E94110318160CF043C0FE0198
:10160000E956FF4F608171818281938120E030E053
:1016100040E251E40E941702DC01CB018E010F561B
:101620001F4FBC01CD010E944100DC01CB01F8013C
:10163000918380831FC0FE01E157FF4F80E991E055
:1016400091838083FE01E157FF4F80819181019753
:10165000F1F7FE01E157FF4F91838083DE01AF5622
:10166000BF4FFE01EF56FF4F808191810197119688
:101670009C938E93FE01EF56FF4F808191810097DE
:10168000D1F627C08E010F561F4FFE01ED56FF4FBA
:1016900060817181828193810E944100DC01CB01D4
:1016A000F80191838083DE01A357BF4FFE01EF56FF
:1016B000FF4F808191818D939C93FE01E357FF4FF3
:1016C000808191810197F1F7FE01E357FF4F9183EC
:1016D0008083FE01EB53FF4F80819181CC01A0E01C
:1016E000B0E09E0125533F4FBC01CD01A9010E94EE
:1016F0003214FE01E757FF4F80E090E0A0E2B1E432
:1017000080839183A283B3838E010B571F4FFE0109
:10171000E757FF4F608171818281938120E030E043
:101720004AE755E40E941702DC01CB01F8018083EF
:101730009183A283B383FE01EB57FF4F60817181D8
:101740008281938120E030E040E85FE30E947103F2
:10175000882344F4FE01ED57FF4F81E090E0918330
:10176000808364C0FE01EB57FF4F608171818281ED
:10177000938120E03FEF4FE757E40E9411031816D2
:101780000CF043C0FE01E757FF4F608171818281F9
:10179000938120E030E040E251E40E941702DC0136
:1017A000CB018E010D571F4FBC01CD010E9441009E
:1017B000DC01CB01F801918380831FC0FE01EF574C
:1017C000FF4F80E991E091838083FE01EF57FF4F47
:1017D000808191810197F1F7FE01EF57FF4F9183CF
:1017E0008083DE01AD57BF4FFE01ED57FF4F808173
:1017F0009181019711969C938E93FE01ED57FF4FB7
:10180000808191810097D1F627C08E010D571F4F1F
:10181000FE01EB57FF4F60817181828193810E94AD
:101820004100DC01CB01F80191838083DE01A158E6
:10183000BF4FFE01ED57FF4F808191818D939C93A7
:10184000FE01E158FF4F808191810197F1F7FE0180
:10185000E158FF4F91838083FE01E553FF4F808164
:101860009181A281B381BA2FA92F982F8827FE01D9
:10187000E553FF4F80839183A283B383FE01EB5333
:10188000FF4F808191810196CC01A0E0B0E09E01E4
:1018900025533F4FBC01CD01A9010E943214FE0126
:1018A000E558FF4F80E090E0A0E2B1E480839183AF
:1018B000A283B3838E0109581F4FFE01E558FF4FE5
:1018C000608171818281938120E030E04AE755E4B4
:1018D0000E941702DC01CB01F80180839183A2836F
:1018E000B383FE01E958FF4F60817181828193814A
:1018F00020E030E040E85FE30E947103882344F475
:10190000FE01EB58FF4F81E090E09183808364C03B
:10191000FE01E958FF4F608171818281938120E04F
:101920003FEF4FE757E40E94110318160CF043C035
:10193000FE01E558FF4F608171818281938120E033
:1019400030E040E251E40E941702DC01CB018E013D
:101950000B581F4FBC01CD010E944100DC01CB019F
:10196000F801918380831FC0FE01ED58FF4F80E98D
:1019700091E091838083FE01ED58FF4F808191813A
:101980000197F1F7FE01ED58FF4F91838083DE014F
:10199000AB58BF4FFE01EB58FF4F808191810197FB
:1019A00011969C938E93FE01EB58FF4F808191819D
:1019B0000097D1F627C08E010B581F4FFE01E95842
:1019C000FF4F60817181828193810E944100DC011F
:1019D000CB01F80191838083DE01AF58BF4FFE0138
:1019E000EB58FF4F808191818D939C93FE01EF58BE
:1019F000FF4F808191810197F1F7FE01EF58FF4F72
:101A000091838083FE01E553FF4F80819181A28104
:101A1000B381BA2FA92F982F8827FE01E553FF4FD6
:101A200080839183A283B383FE01EB53FF4F8081B8
:101A300091810296CC01A0E0B0E09E0125533F4F7A
:101A4000BC01CD01A9010E943214FE01E359FF4FF0
:101A500080E090E0A0E2B1E480839183A283B3832D
:101A60008E0107591F4FFE01E359FF4F60817181BD
:101A70008281938120E030E04AE755E40E9417021A
:101A8000DC01CB01F80180839183A283B383FE0143
:101A9000E759FF4F608171818281938120E030E0BE
:101AA00040E85FE30E947103882344F4FE01E95992
:101AB000FF4F81E090E09183808364C0FE01E7598D
:101AC000FF4F608171818281938120E03FEF4FE77A
:101AD00057E40E94110318160CF043C0FE01E359AD
:101AE000FF4F608171818281938120E030E040E28C
:101AF00051E40E941702DC01CB018E0109591F4FEE
:101B0000BC01CD010E944100DC01CB01F8019183B1
:101B100080831FC0FE01EB59FF4F80E991E0918364
:101B20008083FE01EB59FF4F808191810197F1F78E
:101B3000FE01EB59FF4F91838083DE01A959BF4F0E
:101B4000FE01E959FF4F80819181019711969C9385
:101B50008E93FE01E959FF4F808191810097D1F664
:101B600028C08E0109591F4FFE01E759FF4F6081C0
:101B70007181828193810E944100DC01CB01F801D7
:101B800091838083DE01AD59BF4FFE01E959FF4FBC
:101B90008081918111969C938E93FE01ED59FF4FA8
:101BA000808191810197F1F7FE01ED59FF4F9183FB
:101BB0008083FE01E953FF4F20813181FE01EB5309
:101BC000FF4F808191818217930769F42FEF3FEFD8
:101BD0004FEF5FEFC952DF4F288339834A835B831E
:101BE000C75DD040BFC4FE01E553FF4F2081318166
:101BF00042815381FE01E153FF4F80819181A28197
:101C0000B381281739074A075B0709F0C8C1FE01ED
:101C1000E753FF4F20813181FE01EB53FF4F80815D
:101C20009181A901481B590BCA0107979695879581
:101C3000FE01ED52FF4F0190F081E02D8083FE0107
:101C4000EB53FF4F808191810596CC01A0E0B0E07D
:101C5000FE01EB52FF4F20813181BC01CD01A90172
:101C60000E943214FE01E15AFF4F80E090E0A0E2B2
:101C7000B1E480839183A283B3838E01055A1F4F01
:101C8000FE01E15AFF4F608171818281938120E0E2
:101C900030E04AE755E40E941702DC01CB01F8016D
:101CA00080839183A283B383FE01E55AFF4F608155
:101CB00071818281938120E030E040E85FE30E94FF
:101CC0007103882344F4FE01E75AFF4F81E090E05E
:101CD0009183808364C0FE01E55AFF4F608171816A
:101CE0008281938120E03FEF4FE757E40E94110388
:101CF00018160CF043C0FE01E15AFF4F608171815C
:101D00008281938120E030E040E251E40E9417029A
:101D1000DC01CB018E01075A1F4FBC01CD010E948F
:101D20004100DC01CB01F801918380831FC0FE01DB
:101D3000E95AFF4F80E991E091838083FE01E95ADF
:101D4000FF4F808191810197F1F7FE01E95AFF4F22
:101D500091838083DE01A75ABF4FFE01E75AFF4FF0
:101D600080819181019711969C938E93FE01E75A91
:101D7000FF4F808191810097D1F627C08E01075ACD
:101D80001F4FFE01E55AFF4F60817181828193816F
:101D90000E944100DC01CB01F80191838083DE01C8
:101DA000AB5ABF4FFE01E75AFF4F808191818D935F
:101DB0009C93FE01EB5AFF4F808191810197F1F7CF
:101DC000FE01EB5AFF4F91838083FE01EB52FF4FE0
:101DD0000190F081E02D80819181982F8827FE016C
:101DE000EB52FF4F0190F081E02D91838083FE0143
:101DF000EB53FF4F808191810696CC01A0E0B0E0CB
:101E0000FE01EB52FF4F20813181BC01CD01A901C0
:101E10000E943214FE01EF5AFF4F80E090E0A0E2F2
:101E2000B1E480839183A283B3838E01035B1F4F50
:101E3000FE01EF5AFF4F608171818281938120E022
:101E400030E04AE755E40E941702DC01CB01F801BB
:101E500080839183A283B383FE01E35BFF4F6081A4
:101E600071818281938120E030E040E85FE30E944D
:101E70007103882344F4FE01E55BFF4F81E090E0AD
:101E80009183808364C0FE01E35BFF4F60817181B9
:101E90008281938120E03FEF4FE757E40E941103D6
:101EA00018160CF043C0FE01EF5AFF4F608171819C
:101EB0008281938120E030E040E251E40E941702E9
:101EC000DC01CB018E01055B1F4FBC01CD010E94DF
:101ED0004100DC01CB01F801918380831FC0FE012A
:101EE000E75BFF4F80E991E091838083FE01E75B30
:101EF000FF4F808191810197F1F7FE01E75BFF4F72
:101F000091838083DE01A55BBF4FFE01E55BFF4F40
:101F100080819181019711969C938E93FE01E55BE0
:101F2000FF4F808191810097D1F628C08E01055B1B
:101F30001F4FFE01E35BFF4F6081718182819381BE
:101F40000E944100DC01CB01F80191838083DE0116
:101F5000A95BBF4FFE01E55BFF4F80819181119628
:101F60009C938E93FE01E95BFF4F808191810197E5
:101F7000F1F7FE01E95BFF4F91838083FE01EB5394
:101F8000FF4F808191819C0140E050E0C952DF4FBA
:101F9000288339834A835B83C75DD040E3C2DE0177
:101FA000AB53BF4FFE01E753FF4F808191818D936B
:101FB0009C93FE01EB53FF4F808191810396CC01EE
:101FC000A0E0B0E09E0127533F4FBC01CD01A90125
:101FD0000E943214FE01ED5BFF4F80E090E0A0E232
:101FE000B1E480839183A283B3838E01015C1F4F90
:101FF000FE01ED5BFF4F608171818281938120E062
:1020000030E04AE755E40E941702DC01CB01F801F9
:1020100080839183A283B383FE01FF9660817181E7
:102020008281938120E030E040E85FE30E94710309
:1020300088232CF481E090E09EAF8DAF46C0FE0176
:10204000FF96608171818281938120E03FEF4FE7AD
:1020500057E40E941103181664F5FE01ED5BFF4F73
:10206000608171818281938120E030E040E251E41F
:102070000E941702DC01CB01BC01CD010E9441008E
:10208000DC01CB019EAF8DAF0FC080E991E09CAF2A
:102090008BAF8BAD9CAD0197F1F79CAF8BAF8DAD46
:1020A0009EAD01979EAF8DAF8DAD9EAD009769F748
:1020B00016C0FE01FF9660817181828193810E942A
:1020C0004100DC01CB019EAF8DAF8DAD9EAD9AAFCF
:1020D00089AF89AD9AAD0197F1F79AAF89AFFE014B
:1020E000E753FF4F80819181982F8827FE01E753A6
:1020F000FF4F91838083FE01EB53FF4F80819181DD
:102100000496CC01A0E0B0E09E0127533F4FBC01F4
:10211000CD01A9010E94321480E090E0A0E2B1E478
:102120008DAB9EABAFABB8AF6DA97EA98FA998ADB3
:1021300020E030E04AE755E40E941702DC01CB01C1
:1021400089AB9AABABABBCAB69A97AA98BA99CA9AB
:1021500020E030E040E85FE30E94710388232CF424
:1021600081E090E098AB8FA73FC069A97AA98BA9BD
:102170009CA920E03FEF4FE757E40E941103181697
:102180004CF56DA97EA98FA998AD20E030E040E222
:1021900051E40E941702DC01CB01BC01CD010E9479
:1021A0004100DC01CB0198AB8FA70FC080E991E023
:1021B0009EA78DA78DA59EA50197F1F79EA78DA738
:1021C0008FA598A9019798AB8FA78FA598A900977D
:1021D00069F714C069A97AA98BA99CA90E9441003A
:1021E000DC01CB0198AB8FA78FA598A99CA78BA7E3
:1021F0008BA59CA50197F1F79CA78BA7FE01E55342
:10220000FF4F1082118212821382FE01EB53FF4FA7
:1022100080819181CC01A0E0B0E09E0125533F4F29
:10222000BC01CD01A9010E94321480E090E0A0E23F
:10223000B1E48FA398A7A9A7BAA76FA178A589A58C
:102240009AA520E030E04AE755E40E941702DC013D
:10225000CB018BA39CA3ADA3BEA36BA17CA18DA13D
:102260009EA120E030E040E85FE30E9471038823F4
:102270002CF481E090E09AA389A33FC06BA17CA1DC
:102280008DA19EA120E03FEF4FE757E40E9411038C
:1022900018164CF56FA178A589A59AA520E030E025
:1022A00040E251E40E941702DC01CB01BC01CD01E8
:1022B0000E944100DC01CB019AA389A30FC080E9F1
:1022C00091E098A38F8F8F8D98A10197F1F798A334
:1022D0008F8F89A19AA101979AA389A389A19AA115
:1022E000009769F714C06BA17CA18DA19EA10E94EB
:1022F0004100DC01CB019AA389A389A19AA19E8FF9
:102300008D8F8D8D9E8D0197F1F79E8F8D8FFE01A4
:10231000E553FF4F80819181A281B381BA2FA92F0C
:10232000982F8827FE01E553FF4F80839183A28376
:10233000B383FE01EB53FF4F808191810196CC0165
:10234000A0E0B0E09E0125533F4FBC01CD01A901A3
:102350000E94321480E090E0A0E2B1E4898F9A8F6D
:10236000AB8FBC8F698D7A8D8B8D9C8D20E030E09A
:102370004AE755E40E941702DC01CB018D8B9E8B4E
:10238000AF8BB88F6D897E898F89988D20E030E082
:1023900040E85FE30E94710388232CF481E090E021
:1023A0009C8B8B8B3FC06D897E898F89988D20E0B7
:1023B0003FEF4FE757E40E94110318164CF5698D63
:1023C0007A8D8B8D9C8D20E030E040E251E40E94BC
:1023D0001702DC01CB01BC01CD010E944100DC01F0
:1023E000CB019C8B8B8B0FC080E991E09A8B898B02
:1023F00089899A890197F1F79A8B898B8B899C89B6
:1024000001979C8B8B8B8B899C89009769F714C0F3
:102410006D897E898F89988D0E944100DC01CB01F6
:102420009C8B8B8B8B899C89988B8F878F859889C8
:102430000197F1F7988B8F87FE01E553FF4F80815D
:102440009181A281B381BA2FA92F982F8827FE01ED
:10245000E553FF4F80839183A283B383FE01EB5347
:10246000FF4F808191810296CC01A0E0B0E09E01F7
:1024700025533F4FBC01CD01A9010E94321480E0D9
:1024800090E0A0E2B1E48B879C87AD87BE876B8527
:102490007C858D859E8520E030E04AE755E40E94EA
:1024A0001702DC01CB018F839887A987BA876F81D8
:1024B000788589859A8520E030E040E85FE30E94D6
:1024C000710388232CF481E090E09E838D833FC0CC
:1024D0006F81788589859A8520E03FEF4FE757E443
:1024E0000E94110318164CF56B857C858D859E85A1
:1024F00020E030E040E251E40E941702DC01CB0111
:10250000BC01CD010E944100DC01CB019E838D8383
:102510000FC080E991E09C838B838B819C81019724
:10252000F1F79C838B838D819E8101979E838D83A0
:102530008D819E81009769F73CCB6F817885898575
:102540009A850E944100DC01CB019E838D838D81A1
:102550009E819A83898389819A810197F1F79A8371
:10256000898327CBC952DF4F88819981AA81BB819A
:10257000C75DD040BC01CD01C652DF4F0FB6F89405
:10258000DEBF0FBECDBFCF91DF911F910F91089598
:10259000DF93CF93CDB7DEB729970FB6F894DEBFA0
:1025A0000FBECDBF98878F8369871B821C821D82D7
:1025B0001E821A82198235C029813A818F819885BD
:1025C000FC01E20FF31F8081282F30E040E050E053
:1025D0008B819C81AD81BE81822B932BA42BB52B4B
:1025E0008B839C83AD83BE838B819C81AD81BE81B7
:1025F000880F991FAA1FBB1F880F991FAA1FBB1FF7
:10260000880F991FAA1FBB1F880F991FAA1FBB1FE6
:102610008B839C83AD83BE8389819A8101969A8343
:1026200089838985882F90E09C01215030408981E1
:102630009A81821793070CF4BFCF8985882F90E089
:102640009C01215030408F819885FC01E20FF31FDF
:102650008081282F30E040E050E08B819C81AD816B
:10266000BE81822B932BA42BB52B8B839C83AD83B4
:10267000BE838B819C81AD81BE81BC01CD01299639
:102680000FB6F894DEBF0FBECDBFCF91DF91089596
:10269000DF93CF93CDB7DEB769970FB6F894DEBF5F
:1026A0000FBECDBF988F8F8B698F898D86958E8356
:1026B00080E1FE013796DF01982F1D929A95E9F788
:1026C0001D821B8218C08D81482F50E08B81282FDE
:1026D00030E08F89988DFC01E20FF31F2081CE013D
:1026E0000796FC01E40FF51F20838B818F5F8B839E
:1026F0008D818F5F8D839B818E81981720F38E81D2
:102700008C83898D882F90E081709070882319F0D8
:102710008C818F5F8C8388E08D831A821EC08D81AF
:10272000482F50E08A81282F30E08E81882F90E05A
:10273000820F931F9C018F89988DFC01E20FF31F7C
:102740002081CE010796FC01E40FF51F20838A81CA
:102750008F5F8A838D818F5F8D839A818C8198179B
:10276000F0F2198215C08981282F30E08F89988D69
:10277000DC01A20FB31F8981282F30E0CE0107961C
:10278000FC01E20FF31F80818C9389818F5F898325
:102790008981803140F369960FB6F894DEBF0FBE91
:1027A000CDBFCF91DF910895DF93CF9300D000D0BC
:1027B00000D0CDB7DEB769837A838B839C834D834A
:1027C0000E94D5340E942D35883011F01E8240C001
:1027D00089819A81AB81BC8180709070A770B07044
:1027E000072E7FE0B695A795979587957A95D1F7AF
:1027F000702D806A0E94F0340E942D35883111F0CE
:102800001E8226C089819A81AB81BC81892F9A2F33
:10281000AB2FBB270E94F0340E942D35883211F077
:102820001E8216C089810E94F0340E942D358832A4
:1028300011F01E820DC08D810E94F0340E942D3552
:10284000883211F01E8204C00E94E53481E08E833C
:102850008E8126960FB6F894DEBF0FBECDBFCF9106
:10286000DF910895DF93CF93CDB7DEB727970FB6EB
:10287000F894DEBF0FBECDBF69837A838B839C83C0
:102880005E834D830E94D5340E942D35883011F02F
:102890001F8263C089819A81AB81BC8180709070F6
:1028A000A770B070072E7FE0B695A795979587958E
:1028B0007A95D1F7702D806A0E94F0340E942D35F0
:1028C000883119F08BE08F8348C089819A81AB8170
:1028D000BC81892F9A2FAB2FBB270E94F0348981AE
:1028E0000E94F0340E942D35883219F08CE08F83DD
:1028F00034C00E94D5340E942D35803119F08DE00E
:102900008F832BC089819A81AB81BC81807090704C
:10291000A770B070072E7FE0B695A795979587951D
:102920007A95D1F7702D816A0E94F0340E942D357E
:10293000803419F08EE08F8310C00E941A35ED812B
:10294000FE8180830E942D35883519F08FE08F83BA
:1029500004C00E94E53481E08F838F8127960FB6F3
:10296000F894DEBF0FBECDBFCF91DF910895DF9306
:10297000CF9300D000D00F92CDB7DEB789836A83A2
:102980004B838981843008F0D5C08A81883008F073
:10299000D1C08981282F30E03D832C838C819D819B
:1029A0008130910509F443C02C813D8122303105ED
:1029B0002CF48C819D81009771F0BCC02C813D81ED
:1029C0002230310509F45FC08C819D8183309105EF
:1029D00009F485C0AFC08B818130A1F4AAE3B0E0D7
:1029E000EAE3F0E08081482F8A81282F30E081E0FF
:1029F00090E0022E02C0880F991F0A94E2F7842B00
:102A00008C9398C0AAE3B0E0EAE3F0E08081482F1D
:102A10008A81282F30E081E090E0022E02C0880FEA
:102A2000991F0A94E2F7809584238C9383C08B814D
:102A30008130A1F4A7E3B0E0E7E3F0E08081482F24
:102A40008A81282F30E081E090E0022E02C0880FBA
:102A5000991F0A94E2F7842B8C936CC0A7E3B0E033
:102A6000E7E3F0E08081482F8A81282F30E081E081
:102A700090E0022E02C0880F991F0A94E2F7809519
:102A800084238C9357C08B818130A1F4A4E3B0E000
:102A9000E4E3F0E08081482F8A81282F30E081E054
:102AA00090E0022E02C0880F991F0A94E2F7842B4F
:102AB0008C9340C0A4E3B0E0E4E3F0E08081482FD1
:102AC0008A81282F30E081E090E0022E02C0880F3A
:102AD000991F0A94E2F7809584238C932BC08B81F5
:102AE0008130A1F4A1E3B0E0E1E3F0E08081482F80
:102AF0008A81282F30E081E090E0022E02C0880F0A
:102B0000991F0A94E2F7842B8C9314C0A1E3B0E0E0
:102B1000E1E3F0E08081482F8A81282F30E081E0D6
:102B200090E0022E02C0880F991F0A94E2F7809568
:102B300084238C930F900F900F900F900F90CF9154
:102B4000DF910895DF93CF9300D000D00F92CDB7DF
:102B5000DEB789836A834B838981843008F0D5C0CE
:102B60008A81883008F0D1C08981282F30E03D83E8
:102B70002C838C819D818130910509F443C02C8187
:102B80003D81223031052CF48C819D81009771F0BC
:102B9000BCC02C813D812230310509F45FC08C819D
:102BA0009D818330910509F485C0AFC08B81813050
:102BB000A1F4ABE3B0E0EBE3F0E08081482F8A8141
:102BC000282F30E081E090E0022E02C0880F991F8C
:102BD0000A94E2F7842B8C9398C0ABE3B0E0EBE36C
:102BE000F0E08081482F8A81282F30E081E090E05A
:102BF000022E02C0880F991F0A94E2F78095842361
:102C00008C9383C08B818130A1F4A8E3B0E0E8E32A
:102C1000F0E08081482F8A81282F30E081E090E029
:102C2000022E02C0880F991F0A94E2F7842B8C931E
:102C30006CC0A8E3B0E0E8E3F0E08081482F8A812F
:102C4000282F30E081E090E0022E02C0880F991F0B
:102C50000A94E2F7809584238C9357C08B8181304E
:102C6000A1F4A5E3B0E0E5E3F0E08081482F8A819C
:102C7000282F30E081E090E0022E02C0880F991FDB
:102C80000A94E2F7842B8C9340C0A5E3B0E0E5E31F
:102C9000F0E08081482F8A81282F30E081E090E0A9
:102CA000022E02C0880F991F0A94E2F780958423B0
:102CB0008C932BC08B818130A1F4A2E3B0E0E2E3DE
:102CC000F0E08081482F8A81282F30E081E090E079
:102CD000022E02C0880F991F0A94E2F7842B8C936E
:102CE00014C0A2E3B0E0E2E3F0E08081482F8A81E3
:102CF000282F30E081E090E0022E02C0880F991F5B
:102D00000A94E2F7809584238C930F900F900F9094
:102D10000F900F90CF91DF910895DF93CF9300D064
:102D200000D00F92CDB7DEB789836A838A8188305D
:102D300008F085C08981843008F081C08981282FFE
:102D400030E03D832C834C815D814130510579F128
:102D50008C819D818230910534F42C813D81211537
:102D6000310569F06CC04C815D8142305105B9F18B
:102D70008C819D818330910509F449C060C0E9E3ED
:102D8000F0E08081282F30E08A81882F90E0A9012F
:102D900002C0559547958A95E2F7CA0181709070F7
:102DA000882319F051E05B834BC01B8249C0E6E3E6
:102DB000F0E08081282F30E08A81882F90E0A901FF
:102DC00002C0559547958A95E2F7CA0181709070C7
:102DD000882319F051E05B8333C01B8231C0E3E3E9
:102DE000F0E08081282F30E08A81882F90E0A901CF
:102DF00002C0559547958A95E2F7CA018170907097
:102E0000882319F051E05B831BC01B8219C0E0E3EB
:102E1000F0E08081282F30E08A81882F90E0A9019E
:102E200002C0559547958A95E2F7CA018170907066
:102E3000882319F051E05B8303C01B8201C01B8211
:102E40008B810F900F900F900F900F90CF91DF918B
:102E50000895DF93CF9300D000D0CDB7DEB789833C
:102E60006A838981843090F58981282F30E03C8302
:102E70002B838B819C8181309105D1F02B813C810A
:102E8000223031052CF48B819C81009761F01EC0AB
:102E90002B813C812230310581F08B819C818330F4
:102EA000910581F013C0EAE3F0E08A8180830EC0CF
:102EB000E7E3F0E08A81808309C0E4E3F0E08A81FF
:102EC000808304C0E1E3F0E08A8180830F900F905B
:102ED0000F900F90CF91DF910895DF93CF9300D0A3
:102EE00000D0CDB7DEB789836A838981843090F5BD
:102EF0008981282F30E03C832B838B819C8181301A
:102F00009105D1F02B813C81223031052CF48B814D
:102F10009C81009761F01EC02B813C8122303105DD
:102F200081F08B819C818330910581F013C0EBE3AC
:102F3000F0E08A8180830EC0E8E3F0E08A8180833C
:102F400009C0E5E3F0E08A81808304C0E2E3F0E0B9
:102F50008A8180830F900F900F900F90CF91DF9117
:102F60000895DF93CF9300D000D0CDB7DEB78A832A
:102F700019828A81843090F58A81282F30E03C8341
:102F80002B838B819C8181309105D1F02B813C81F9
:102F9000223031052CF48B819C81009761F01EC09A
:102FA0002B813C812230310581F08B819C818330E3
:102FB000910581F013C0E9E3F0E0808189830EC0C0
:102FC000E6E3F0E08081898309C0E3E3F0E08081FB
:102FD000898304C0E0E3F0E08081898389810F90D8
:102FE0000F900F900F90CF91DF910895DF93CF93C3
:102FF000CDB7DEB764970FB6F894DEBF0FBECDBF76
:103000001C8A1B8A0DC08B89982F9C5F80E0692FDA
:1030100040E00E94B7148B899C8901969C8B8B8B16
:103020008B899C898430910574F380E090E0A8E45A
:10303000B2E48B879C87AD87BE876B857C858D8549
:103040009E8520E030E04AE755E40E941702DC014B
:10305000CB018F839887A987BA876F817885898507
:103060009A8520E030E040E85FE30E947103882306
:103070002CF481E090E09E838D833FC06F81788542
:1030800089859A8520E03FEF4FE757E40E941103BE
:1030900018164CF56B857C858D859E8520E030E08B
:1030A00040E251E40E941702DC01CB01BC01CD01DA
:1030B0000E944100DC01CB019E838D830FC080E91B
:1030C00091E09C838B838B819C810197F1F79C839A
:1030D0008B838D819E8101979E838D838D819E81BF
:1030E000009769F714C06F81788589859A850E9459
:1030F0004100DC01CB019E838D838D819E819A836B
:10310000898389819A810197F1F79A8389831A8A41
:10311000198A48C0998980E0692F41E00E94B7145C
:10312000998980E0692F40E00E94A215188A1F86C5
:1031300029C08F85982F9C5F80E0692F0E948D1693
:103140008823D9F4998980E0692F40E00E94B71460
:1031500089899A89880F991F880F991F982F8F85C1
:10316000890F8F5F0E94D91864960FB6F894DEBF5E
:103170000FBECDBFCF91DF9108958F8598890196BD
:10318000988B8F878F8598898430910594F29989DF
:1031900080E0692F40E00E94B71489899A890196DE
:1031A0009A8B898B89899A89843091050CF4B2CFE6
:1031B0003CCFDF93CF9300D000D0CDB7DEB78A836A
:1031C00019828A81282F30E03C832B838B819C815C
:1031D0008830910509F470C02B813C81293031057C
:1031E0005CF58B819C818430910509F459C02B8159
:1031F0003C81253031059CF48B819C818230910586
:1032000009F448C02B813C81233031050CF045C0C6
:103210008B819C818130910509F439C066C02B8176
:103220003C812630310509F441C08B819C81873077
:1032300091050CF03EC037C02B813C812C3031050C
:1032400009F446C08B819C818D3091055CF42B8103
:103250003C812A303105B1F18B819C818B30910505
:10326000A4F52DC02B813C812E303105B9F18B8125
:103270009C818E3091057CF12B813C812F30310572
:1032800079F18B819C818031910569F12EC087E0B5
:1032900089832BC088E0898328C089E0898325C081
:1032A0008FE2898322C084E089831FC085E08983FF
:1032B0001CC086E0898319C08AE2898316C081E038
:1032C000898313C082E0898310C083E089830DC0A5
:1032D0008DE289830AC080E2898307C0198205C014
:1032E00080E2898302C08BE2898389810F900F90ED
:1032F0000F900F90CF91DF9108950F931F93DF935D
:10330000CF93CDB7DEB7C356D0400FB6F894DEBF2B
:103310000FBECDBFFE01ED59FF4F808382E062E01A
:1033200040E00E94A215FE01E15AFF4F80E090E0CC
:10333000A0E8BFE380839183A283B3838E01055A03
:103340001F4FFE01E15AFF4F60817181828193819D
:1033500020E030E04AE755E40E941702DC01CB018F
:10336000F80180839183A283B383FE01E55AFF4F66
:10337000608171818281938120E030E040E85FE3E9
:103380000E947103882344F4FE01E75AFF4F81E055
:1033900090E09183808364C0FE01E55AFF4F608115
:1033A00071818281938120E03FEF4FE757E40E94D3
:1033B000110318160CF043C0FE01E15AFF4F608163
:1033C00071818281938120E030E040E251E40E94EB
:1033D0001702DC01CB018E01075A1F4FBC01CD0142
:1033E0000E944100DC01CB01F801918380831FC062
:1033F000FE01E95AFF4F80E991E091838083FE014D
:10340000E95AFF4F808191810197F1F7FE01E95A56
:10341000FF4F91838083DE01A75ABF4FFE01E75A19
:10342000FF4F80819181019711969C938E93FE01AD
:10343000E75AFF4F808191810097D1F627C08E0116
:10344000075A1F4FFE01E55AFF4F6081718182814B
:1034500093810E944100DC01CB01F80191838083BC
:10346000DE01AB5ABF4FFE01E75AFF4F80819181C9
:103470008D939C93FE01EB5AFF4F808191810197C0
:10348000F1F7FE01EB5AFF4F9183808382E063E006
:1034900041E00E94A215FE01EF5AFF4F80E090E04C
:1034A000A0E8BFE380839183A283B3838E01035B93
:1034B0001F4FFE01EF5AFF4F60817181828193811E
:1034C00020E030E04AE755E40E941702DC01CB011E
:1034D000F80180839183A283B383FE01E35BFF4FF6
:1034E000608171818281938120E030E040E85FE378
:1034F0000E947103882344F4FE01E55BFF4F81E0E5
:1035000090E09183808364C0FE01E35BFF4F6081A4
:1035100071818281938120E03FEF4FE757E40E9461
:10352000110318160CF043C0FE01EF5AFF4F6081E3
:1035300071818281938120E030E040E251E40E9479
:103540001702DC01CB018E01055B1F4FBC01CD01D1
:103550000E944100DC01CB01F801918380831FC0F0
:10356000FE01E75BFF4F80E991E091838083FE01DC
:10357000E75BFF4F808191810197F1F7FE01E75BE7
:10358000FF4F91838083DE01A55BBF4FFE01E55BAA
:10359000FF4F80819181019711969C938E93FE013C
:1035A000E55BFF4F808191810097D1F627C08E01A6
:1035B000055B1F4FFE01E35BFF4F608171818281DC
:1035C00093810E944100DC01CB01F801918380834B
:1035D000DE01A95BBF4FFE01E55BFF4F808191815A
:1035E0008D939C93FE01E95BFF4F80819181019750
:1035F000F1F7FE01E95BFF4F91838083FE01ED59F6
:10360000FF4F8081882F90E080719070959587950D
:10361000959587959595879595958795982F82E0AF
:1036200064E0492F0E94A215FE01ED59FF4F8081F1
:10363000882F90E0807290709595879595958795E5
:10364000959587959595879595958795982F82E07F
:1036500065E0492F0E94A215FE01ED59FF4F8081C0
:10366000882F90E080749070082E892F000C881F9E
:10367000990B000C881F991F982F82E066E0492F54
:103680000E94A215FE01ED59FF4F8081982F991FCE
:103690009927991F82E067E0492F0E94A215FE0139
:1036A000ED5BFF4F80E090E0A0E8BFE38083918373
:1036B000A283B3838E01015C1F4FFE01ED5BFF4FC0
:1036C000608171818281938120E030E04AE755E496
:1036D0000E941702DC01CB01F80180839183A28351
:1036E000B383FE01FF96608171818281938120E026
:1036F00030E040E85FE30E94710388232CF481E00E
:1037000090E09EAF8DAF46C0FE01FF966081718153
:103710008281938120E03FEF4FE757E40E9411033D
:10372000181664F5FE01ED5BFF4F608171818281A7
:10373000938120E030E040E251E40E941702DC0176
:10374000CB01BC01CD010E944100DC01CB019EAF49
:103750008DAF0FC080E991E09CAF8BAF8BAD9CAD7E
:103760000197F1F79CAF8BAF8DAD9EAD01979EAFEA
:103770008DAF8DAD9EAD009769F716C0FE01FF9627
:1037800060817181828193810E944100DC01CB01C3
:103790009EAF8DAF8DAD9EAD9AAF89AF89AD9AAD1D
:1037A0000197F1F79AAF89AF82E063E040E00E94B1
:1037B000A21580E090E0A0E8BFE38DAB9EABAFAB7D
:1037C000B8AF6DA97EA98FA998AD20E030E04AE797
:1037D00055E40E941702DC01CB0189AB9AABABAB7D
:1037E000BCAB69A97AA98BA99CA920E030E040E88C
:1037F0005FE30E94710388232CF481E090E098AB92
:103800008FA73FC069A97AA98BA99CA920E03FEFA7
:103810004FE757E40E94110318164CF56DA97EA9D5
:103820008FA998AD20E030E040E251E40E941702F9
:10383000DC01CB01BC01CD010E944100DC01CB01C8
:1038400098AB8FA70FC080E991E09EA78DA78DA5AB
:103850009EA50197F1F79EA78DA78FA598A901971F
:1038600098AB8FA78FA598A9009769F714C069A98D
:103870007AA98BA99CA90E944100DC01CB0198ABDD
:103880008FA78FA598A99CA78BA78BA59CA501970F
:10389000F1F79CA78BA782E063E041E00E94A215AC
:1038A00080E090E0A0E8BFE38FA398A7A9A7BAA7FC
:1038B0006FA178A589A59AA520E030E04AE755E4F4
:1038C0000E941702DC01CB018BA39CA3ADA3BEA376
:1038D0006BA17CA18DA19EA120E030E040E85FE3D8
:1038E0000E94710388232CF481E090E09AA389A3BD
:1038F0003FC06BA17CA18DA19EA120E03FEF4FE7CF
:1039000057E40E94110318164CF56FA178A589A5FC
:103910009AA520E030E040E251E40E941702DC0169
:10392000CB01BC01CD010E944100DC01CB019AA377
:1039300089A30FC080E991E098A38F8F8F8D98A104
:103940000197F1F798A38F8F89A19AA101979AA364
:1039500089A389A19AA1009769F714C06BA17CA1E2
:103960008DA19EA10E944100DC01CB019AA389A3F5
:1039700089A19AA19E8F8D8F8D8D9E8D0197F1F7D4
:103980009E8F8D8FFE01ED59FF4F8081982F917092
:1039900082E064E0492F0E94A215FE01ED59FF4F1D
:1039A0008081882F90E08270907095958795982FF0
:1039B00082E065E0492F0E94A215FE01ED59FF4FFC
:1039C0008081882F90E0847090709595879595956B
:1039D0008795982F82E066E0492F0E94A215FE018C
:1039E000ED59FF4F8081882F90E0887090709595F9
:1039F00087959595879595958795982F82E067E0AF
:103A0000492F0E94A21580E090E0A0E8BFE3898FD3
:103A10009A8FAB8FBC8F698D7A8D8B8D9C8D20E0BA
:103A200030E04AE755E40E941702DC01CB018D8BA0
:103A30009E8BAF8BB88F6D897E898F89988D20E0A2
:103A400030E040E85FE30E94710388232CF481E0BA
:103A500090E09C8B8B8B3FC06D897E898F89988D80
:103A600020E03FEF4FE757E40E94110318164CF592
:103A7000698D7A8D8B8D9C8D20E030E040E251E4A1
:103A80000E941702DC01CB01BC01CD010E94410064
:103A9000DC01CB019C8B8B8B0FC080E991E09A8B72
:103AA000898B89899A890197F1F79A8B898B8B8900
:103AB0009C8901979C8B8B8B8B899C89009769F7DC
:103AC00014C06D897E898F89988D0E944100DC0128
:103AD000CB019C8B8B8B8B899C89988B8F878F8557
:103AE00098890197F1F7988B8F8782E063E040E037
:103AF0000E94A21580E090E0A0E8BFE38B879C873E
:103B0000AD87BE876B857C858D859E8520E030E006
:103B10004AE755E40E941702DC01CB018F839887A6
:103B2000A987BA876F81788589859A8520E030E0FA
:103B300040E85FE30E94710388232CF481E090E069
:103B40009E838D833FC06F81788589859A8520E02B
:103B50003FEF4FE757E40E94110318164CF56B85B1
:103B60007C858D859E8520E030E040E251E40E9416
:103B70001702DC01CB01BC01CD010E944100DC0138
:103B8000CB019E838D830FC080E991E09C838B8362
:103B90008B819C810197F1F79C838B838D819E8122
:103BA00001979E838D838D819E81009769F714C054
:103BB0006F81788589859A850E944100DC01CB015F
:103BC0009E838D838D819E819A83898389819A8149
:103BD0000197F1F79A838983CD59DF4F0FB6F89497
:103BE000DEBF0FBECDBFCF91DF911F910F91089522
:103BF000DF93CF93CDB7DEB76C970FB6F894DEBFE7
:103C00000FBECDBF82E063E041E00E94B71482E0C6
:103C100062E041E00E94B71480E090E0A0EAB1E4E5
:103C2000898F9A8FAB8FBC8F698D7A8D8B8D9C8D90
:103C300020E030E04AE755E40E941702DC01CB01A6
:103C40008D8B9E8BAF8BB88F6D897E898F89988D78
:103C500020E030E040E85FE30E94710388232CF409
:103C600081E090E09C8B8B8B3FC06D897E898F8932
:103C7000988D20E03FEF4FE757E40E94110318169C
:103C80004CF5698D7A8D8B8D9C8D20E030E040E283
:103C900051E40E941702DC01CB01BC01CD010E945E
:103CA0004100DC01CB019C8B8B8B0FC080E991E044
:103CB0009A8B898B89899A890197F1F79A8B898BDD
:103CC0008B899C8901979C8B8B8B8B899C89009716
:103CD00069F714C06D897E898F89988D0E94410093
:103CE000DC01CB019C8B8B8B8B899C89988B8F877C
:103CF0008F8598890197F1F7988B8F8782E064E030
:103D000041E00E94B71482E065E041E00E94B714F0
:103D100082E066E041E00E94B71482E067E041E0A3
:103D20000E94B71480E090E0A0EAB1E48B879C8702
:103D3000AD87BE876B857C858D859E8520E030E0D4
:103D40004AE755E40E941702DC01CB018F83988774
:103D5000A987BA876F81788589859A8520E030E0C8
:103D600040E85FE30E94710388232CF481E090E037
:103D70009E838D833FC06F81788589859A8520E0F9
:103D80003FEF4FE757E40E94110318164CF56B857F
:103D90007C858D859E8520E030E040E251E40E94E4
:103DA0001702DC01CB01BC01CD010E944100DC0106
:103DB000CB019E838D830FC080E991E09C838B8330
:103DC0008B819C810197F1F79C838B838D819E81F0
:103DD00001979E838D838D819E81009769F714C022
:103DE0006F81788589859A850E944100DC01CB012D
:103DF0009E838D838D819E819A83898389819A8117
:103E00000197F1F79A83898383E30E947D1982E306
:103E10000E947D1988E20E947D198CE00E947D1924
:103E200081E00E947D196C960FB6F894DEBF0FBE3C
:103E3000CDBFCF91DF9108950F931F93DF93CF9361
:103E4000CDB7DEB7C356D0400FB6F894DEBF0FBE75
:103E5000CDBFFE01ED59FF4F808382E062E041E07B
:103E60000E94A215FE01E15AFF4F80E090E0A0E819
:103E7000BFE380839183A283B3838E01055A1F4FD2
:103E8000FE01E15AFF4F608171818281938120E0C0
:103E900030E04AE755E40E941702DC01CB01F8014B
:103EA00080839183A283B383FE01E55AFF4F608133
:103EB00071818281938120E030E040E85FE30E94DD
:103EC0007103882344F4FE01E75AFF4F81E090E03C
:103ED0009183808364C0FE01E55AFF4F6081718148
:103EE0008281938120E03FEF4FE757E40E94110366
:103EF00018160CF043C0FE01E15AFF4F608171813A
:103F00008281938120E030E040E251E40E94170278
:103F1000DC01CB018E01075A1F4FBC01CD010E946D
:103F20004100DC01CB01F801918380831FC0FE01B9
:103F3000E95AFF4F80E991E091838083FE01E95ABD
:103F4000FF4F808191810197F1F7FE01E95AFF4F00
:103F500091838083DE01A75ABF4FFE01E75AFF4FCE
:103F600080819181019711969C938E93FE01E75A6F
:103F7000FF4F808191810097D1F627C08E01075AAB
:103F80001F4FFE01E55AFF4F60817181828193814D
:103F90000E944100DC01CB01F80191838083DE01A6
:103FA000AB5ABF4FFE01E75AFF4F808191818D933D
:103FB0009C93FE01EB5AFF4F808191810197F1F7AD
:103FC000FE01EB5AFF4F9183808382E063E041E082
:103FD0000E94A215FE01EF5AFF4F80E090E0A0E89A
:103FE000BFE380839183A283B3838E01035B1F4F62
:103FF000FE01EF5AFF4F608171818281938120E041
:1040000030E04AE755E40E941702DC01CB01F801D9
:1040100080839183A283B383FE01E35BFF4F6081C2
:1040200071818281938120E030E040E85FE30E946B
:104030007103882344F4FE01E55BFF4F81E090E0CB
:104040009183808364C0FE01E35BFF4F60817181D7
:104050008281938120E03FEF4FE757E40E941103F4
:1040600018160CF043C0FE01EF5AFF4F60817181BA
:104070008281938120E030E040E251E40E94170207
:10408000DC01CB018E01055B1F4FBC01CD010E94FD
:104090004100DC01CB01F801918380831FC0FE0148
:1040A000E75BFF4F80E991E091838083FE01E75B4E
:1040B000FF4F808191810197F1F7FE01E75BFF4F90
:1040C00091838083DE01A55BBF4FFE01E55BFF4F5F
:1040D00080819181019711969C938E93FE01E55BFF
:1040E000FF4F808191810097D1F627C08E01055B3B
:1040F0001F4FFE01E35BFF4F6081718182819381DD
:104100000E944100DC01CB01F80191838083DE0134
:10411000A95BBF4FFE01E55BFF4F808191818D93CD
:104120009C93FE01E95BFF4F808191810197F1F73C
:10413000FE01E95BFF4F91838083FE01ED59FF4F44
:104140008081882F90E080719070959587959595E6
:1041500087959595879595958795982F82E064E04A
:10416000492F0E94A215FE01ED59FF4F8081882F33
:1041700090E0807290709595879595958795959527
:1041800087959595879595958795982F82E065E019
:10419000492F0E94A215FE01ED59FF4F8081882F03
:1041A00090E080749070082E892F000C881F990B66
:1041B000000C881F991F982F82E066E0492F0E940B
:1041C000A215FE01ED59FF4F8081982F991F992765
:1041D000991F82E067E0492F0E94A215FE01ED5B66
:1041E000FF4F80E090E0A0E8BFE380839183A2834B
:1041F000B3838E01015C1F4FFE01ED5BFF4F6081B9
:1042000071818281938120E030E04AE755E40E9489
:104210001702DC01CB01F80180839183A283B38371
:10422000FE01FF96608171818281938120E030E000
:1042300040E85FE30E94710388232CF481E090E062
:104240009EAF8DAF46C0FE01FF9660817181828175
:10425000938120E03FEF4FE757E40E9411031816C7
:1042600064F5FE01ED5BFF4F608171818281938176
:1042700020E030E040E251E40E941702DC01CB0173
:10428000BC01CD010E944100DC01CB019EAF8DAF8E
:104290000FC080E991E09CAF8BAF8BAD9CAD0197D7
:1042A000F1F79CAF8BAF8DAD9EAD01979EAF8DAFFB
:1042B0008DAD9EAD009769F716C0FE01FF96608137
:1042C0007181828193810E944100DC01CB019EAF0C
:1042D0008DAF8DAD9EAD9AAF89AF89AD9AAD019787
:1042E000F1F79AAF89AF82E063E040E00E94A21547
:1042F00080E090E0A0E8BFE38DAB9EABAFABB8AF82
:104300006DA97EA98FA998AD20E030E04AE755E479
:104310000E941702DC01CB0189AB9AABABABBCAB03
:1043200069A97AA98BA99CA920E030E040E85FE365
:104330000E94710388232CF481E090E098AB8FA752
:104340003FC069A97AA98BA99CA920E03FEF4FE75C
:1043500057E40E94110318164CF56DA97EA98FA988
:1043600098AD20E030E040E251E40E941702DC0109
:10437000CB01BC01CD010E944100DC01CB0198AB17
:104380008FA70FC080E991E09EA78DA78DA59EA560
:104390000197F1F79EA78DA78FA598A9019798ABD4
:1043A0008FA78FA598A9009769F714C069A97AA962
:1043B0008BA99CA90E944100DC01CB0198AB8FA77F
:1043C0008FA598A99CA78BA78BA59CA50197F1F712
:1043D0009CA78BA782E063E041E00E94A21580E0E9
:1043E00090E0A0E8BFE38FA398A7A9A7BAA76FA101
:1043F00078A589A59AA520E030E04AE755E40E9417
:104400001702DC01CB018BA39CA3ADA3BEA36BA1C0
:104410007CA18DA19EA120E030E040E85FE30E94F6
:10442000710388232CF481E090E09AA389A33FC014
:104430006BA17CA18DA19EA120E03FEF4FE757E447
:104440000E94110318164CF56FA178A589A59AA5AD
:1044500020E030E040E251E40E941702DC01CB0191
:10446000BC01CD010E944100DC01CB019AA389A3CC
:104470000FC080E991E098A38F8F8F8D98A101974D
:10448000F1F798A38F8F89A19AA101979AA389A385
:1044900089A19AA1009769F714C06BA17CA18DA195
:1044A0009EA10E944100DC01CB019AA389A389A1AE
:1044B0009AA19E8F8D8F8D8D9E8D0197F1F79E8F86
:1044C0008D8FFE01ED59FF4F8081982F917082E012
:1044D00064E0492F0E94A215FE01ED59FF4F808133
:1044E000882F90E08270907095958795982F82E044
:1044F00065E0492F0E94A215FE01ED59FF4F808112
:10450000882F90E084709070959587959595879504
:10451000982F82E066E0492F0E94A215FE01ED5916
:10452000FF4F8081882F90E08870907095958795D7
:104530009595879595958795982F82E067E0492F07
:104540000E94A21580E090E0A0E8BFE3898F9A8FD7
:10455000AB8FBC8F698D7A8D8B8D9C8D20E030E088
:104560004AE755E40E941702DC01CB018D8B9E8B3C
:10457000AF8BB88F6D897E898F89988D20E030E070
:1045800040E85FE30E94710388232CF481E090E00F
:104590009C8B8B8B3FC06D897E898F89988D20E0A5
:1045A0003FEF4FE757E40E94110318164CF5698D51
:1045B0007A8D8B8D9C8D20E030E040E251E40E94AA
:1045C0001702DC01CB01BC01CD010E944100DC01DE
:1045D000CB019C8B8B8B0FC080E991E09A8B898BF0
:1045E00089899A890197F1F79A8B898B8B899C89A4
:1045F00001979C8B8B8B8B899C89009769F714C0E2
:104600006D897E898F89988D0E944100DC01CB01E4
:104610009C8B8B8B8B899C89988B8F878F859889B6
:104620000197F1F7988B8F8782E063E040E00E946A
:10463000A21580E090E0A0E8BFE38B879C87AD8760
:10464000BE876B857C858D859E8520E030E04AE7BE
:1046500055E40E941702DC01CB018F839887A9875C
:10466000BA876F81788589859A8520E030E040E8B7
:104670005FE30E94710388232CF481E090E09E8325
:104680008D833FC06F81788589859A8520E03FEFD3
:104690004FE757E40E94110318164CF56B857C8593
:1046A0008D859E8520E030E040E251E40E941702B3
:1046B000DC01CB01BC01CD010E944100DC01CB013A
:1046C0009E838D830FC080E991E09C838B838B81D7
:1046D0009C810197F1F79C838B838D819E8101974B
:1046E0009E838D838D819E81009769F714C06F81B1
:1046F000788589859A850E944100DC01CB019E83E3
:104700008D838D819E819A83898389819A81019786
:10471000F1F79A838983CD59DF4F0FB6F894DEBF46
:104720000FBECDBFCF91DF911F910F910895DF9301
:10473000CF9300D000D0CDB7DEB79C838B831A8295
:1047400019820FC029813A818B819C81FC01E20F83
:10475000F31F80810E941C1F89819A8101969A8390
:10476000898329813A818B819C81FC01E20FF31FAF
:104770008081882339F70F900F900F900F90CF9181
:10478000DF910895DF93CF9300D000D00F92CDB783
:10479000DEB78A836B8319828A81282F30E03D83BC
:1047A0002C838C819D8181309105C1F02C813D81CC
:1047B000223031052CF48C819D81009761F019C065
:1047C0002C813D812230310569F08C819D818330BF
:1047D000910561F00EC08B8189830BC08B81805C59
:1047E000898307C08B81805F898303C08B81805B55
:1047F0008983898180680E947D190F900F900F90A6
:104800000F900F90CF91DF910895DF93CF93CDB7A5
:10481000DEB762970FB6F894DEBF0FBECDBF9A8B9E
:10482000898B89899A899E012F5F3F4FB9014AE0A0
:1048300050E00E949535CE0101960E949723629622
:104840000FB6F894DEBF0FBECDBFCF91DF910895B4
:10485000DF93CF93CDB7DEB781E00E947D19CF9172
:10486000DF9108950F931F93DF93CF93CDB7DEB7FA
:10487000C453D1400FB6F894DEBF0FBECDBF0E9427
:10488000F81DCE0181509F4FC05DDE4F9983888314
:10489000C053D1404EEF51E0CE5CDE4F5983488388
:1048A000C253D14055E0CC5CDE4F5883C453D14055
:1048B000CE5CDE4FA881B981C253D1400C90CE5C52
:1048C000DE4FE881F981C253D1403196CE5CDE4F94
:1048D000F983E883C253D140C05DDE4FA881B9811E
:1048E000C053D1400C92C05DDE4FE881F981C053C6
:1048F000D1403196C05DDE4FF983E883C053D1408B
:10490000CC5CDE4FF881C453D140F150CC5CDE4F1B
:10491000F883C453D140CC5CDE4F2881C453D140CE
:10492000222331F6CE0181509F4F0E949D3482E0B8
:1049300060EF0E946D170E94282480E062E00E94D0
:10494000C2238DE790E00E94972381E063E00E94FC
:10495000C22389E890E00E9497230E94282483E9DB
:1049600090E00E94972381E060E00E94C2238FE9DB
:1049700090E00E9497230E94F617FE01E250FF4F3D
:104980008083FE01E153FF4F80E090E0AAEFB3E4A3
:1049900080839183A283B3838E0105531F4FFE0151
:1049A000E153FF4F608171818281938120E030E08B
:1049B0004AE755E40E941702DC01CB01F80180832D
:1049C0009183A283B383FE01E553FF4F6081718120
:1049D0008281938120E030E040E85FE30E94710330
:1049E000882344F4FE01E753FF4F81E090E0918378
:1049F000808364C0FE01E553FF4F60817181828135
:104A0000938120E03FEF4FE757E40E94110318160F
:104A10000CF043C0FE01E153FF4F60817181828140
:104A2000938120E030E040E251E40E941702DC0173
:104A3000CB018E0107531F4FBC01CD010E944100E5
:104A4000DC01CB01F801918380831FC0FE01E95393
:104A5000FF4F80E991E091838083FE01E953FF4F8E
:104A6000808191810197F1F7FE01E953FF4F918316
:104A70008083DE01A753BF4FFE01E753FF4F8081C4
:104A80009181019711969C938E93FE01E753FF4FFE
:104A9000808191810097D1F628C08E0107531F4F66
:104AA000FE01E553FF4F60817181828193810E94F5
:104AB0004100DC01CB01F80191838083DE01AB531F
:104AC000BF4FFE01E753FF4F8081918111969C9368
:104AD0008E93FE01EB53FF4F808191810197F1F797
:104AE000FE01EB53FF4F91838083FE01E250FF4FA5
:104AF00080818B3209F0F0C30E94282480EB90E083
:104B00000E94972381E060E00E94C22381EC90E044
:104B10000E9497230E94F617FE01E250FF4F808308
:104B2000FE01E250FF4F80818B3211F00C949934DA
:104B30000E9428248FEC90E00E949723CE018C5F86
:104B40009E4F0E949B05FE01E350FF4F8083FE01B4
:104B5000E350FF4F8081873030F4FE01E350FF4F78
:104B60008081882321F486E00E947006F8CEFE0141
:104B7000E450FF4F85E08083FE01E350FF4F8081CA
:104B80008150FE01E451FF4F808330C0FE01E450AC
:104B9000FF4F8081482F552747FD5095FE01E45176
:104BA000FF4F8081282F332727FD3095CE018C5F62
:104BB0009E4FFC01E20FF31F2081CE018C5F9E4FC0
:104BC000FC01E40FF51F2083DE01A451BF4FFE015D
:104BD000E451FF4F808181508C93DE01A450BF4F80
:104BE000FE01E450FF4F808181508C93FE01E4511F
:104BF000FF4F8081882354F6FE01E651FF4F11825A
:104C0000108218C0FE01E651FF4F20813181CE0194
:104C10008C5F9E4FFC01E20FF31F1082DE01A65154
:104C2000BF4FFE01E651FF4F8081918101961196A1
:104C30009C938E93FE01E350FF4F8081282F30E03C
:104C400086E090E0AC01421B530B9A01FE01E65155
:104C5000FF4F8081918182179307A4F2FE01E550F6
:104C6000FF4F80E18083FE01E55FFE4F81E080839E
:104C7000FE01E45FFE4F1082118212821382FE0158
:104C8000E05FFE4F1082118212821382CE018C5F90
:104C90009E4F66E00E94C812DC01CB01FE01EB5082
:104CA000FF4F80839183A283B3838E01045F1E4FE5
:104CB000FE01EB50FF4F80819181A281B3819E0163
:104CC000255F3E4FBC01CD01A90198010E94190842
:104CD000DC01CB01FE01E750FF4F91838083DE01B1
:104CE000AD50BF4FFE01E750FF4F80819181079685
:104CF00011969C938E93FE01E750FF4F8081918126
:104D00005FEF8F3F950709F0BCC00E9428248FED0C
:104D100090E00E949723FE01EF53FF4F80E090E068
:104D2000AAE7B4E480839183A283B3838E01035402
:104D30001F4FFE01EF53FF4F60817181828193818C
:104D400020E030E04AE755E40E941702DC01CB0185
:104D5000F80180839183A283B383FE01E354FF4F64
:104D6000608171818281938120E030E040E85FE3DF
:104D70000E947103882344F4FE01E554FF4F81E053
:104D800090E09183808364C0FE01E354FF4F608113
:104D900071818281938120E03FEF4FE757E40E94C9
:104DA000110318160CF043C0FE01EF53FF4F608152
:104DB00071818281938120E030E040E251E40E94E1
:104DC0001702DC01CB018E0105541F4FBC01CD0140
:104DD0000E944100DC01CB01F801918380831FC058
:104DE000FE01E754FF4F80E991E091838083FE014B
:104DF000E754FF4F808191810197F1F7FE01E7545D
:104E0000FF4F91838083DE01A554BF4FFE01E5541F
:104E1000FF4F80819181019711969C938E93FE01A3
:104E2000E554FF4F808191810097D1F627C08E0114
:104E300005541F4FFE01E354FF4F60817181828151
:104E400093810E944100DC01CB01F80191838083B2
:104E5000DE01A954BF4FFE01E554FF4F80819181CF
:104E60008D939C93FE01E954FF4F808191810197BE
:104E7000F1F7FE01E954FF4F918380830E942824BB
:104E80006ECDFE01EF50FF4F1082E7C1FE01E351EE
:104E9000FF4F1082118212821382FE01E05FFE4FEB
:104EA0001082118212821382DE01AD50BF4FFE01CB
:104EB000ED50FF4F8081918101968D939C93FE016F
:104EC000ED50FF4F80819181CC01A0E0B0E09E01C8
:104ED000205F3E4FBC01CD01A9010E943214FE01AA
:104EE000ED54FF4F80E090E0A0E2B1E48083918335
:104EF000A283B3838E0101551F4FFE01ED54FF4F76
:104F0000608171818281938120E030E04AE755E43D
:104F10000E941702DC01CB01F80180839183A283F8
:104F2000B383FE01E155FF4F6081718182819381DE
:104F300020E030E040E85FE30E947103882344F4FE
:104F4000FE01E355FF4F81E090E09183808364C0D0
:104F5000FE01E155FF4F608171818281938120E0E4
:104F60003FEF4FE757E40E94110318160CF043C0BF
:104F7000FE01ED54FF4F608171818281938120E0B9
:104F800030E040E251E40E941702DC01CB018E01C7
:104F900003551F4FBC01CD010E944100DC01CB0134
:104FA000F801918380831FC0FE01E555FF4F80E922
:104FB00091E091838083FE01E555FF4F80819181CF
:104FC0000197F1F7FE01E555FF4F91838083DE01E4
:104FD000A355BF4FFE01E355FF4F8081918101979B
:104FE00011969C938E93FE01E355FF4F8081918132
:104FF0000097D1F627C08E0103551F4FFE01E155E2
:10500000FF4F60817181828193810E944100DC01A8
:10501000CB01F80191838083DE01A755BF4FFE01CC
:10502000E355FF4F808191818D939C93FE01E7555D
:10503000FF4F808191810197F1F7FE01E755FF4F06
:1050400091838083FE01E05FFE4F80819181A28188
:10505000B381BA2FA92F982F8827FE01E05FFE4F5A
:1050600080839183A283B383FE01ED50FF4F808143
:1050700091810197CC01A0E0B0E09E01205F3E4FFE
:10508000BC01CD01A9010E943214DE01AD50BF4F19
:10509000FE01ED50FF4F8081918101968D939C938D
:1050A000FE01E45FFE4F80819181A281B381FE0108
:1050B000E05FFE4F2081318142815381FE01E55046
:1050C000FF4FBC01CD0100810E942E07FE01EE5072
:1050D000FF4F8083FE01EE50FF4F8081882309F44B
:1050E000C7C0FE01EB55FF4F80E090E0A8E4B2E4BA
:1050F00080839183A283B3838E010F551F4FFE01DE
:10510000EB55FF4F608171818281938120E030E017
:105110004AE755E40E941702DC01CB01F8018083C5
:105120009183A283B383FE01EF55FF4F60817181AC
:105130008281938120E030E040E85FE30E947103C8
:10514000882344F4FE01E156FF4F81E090E0918313
:10515000808364C0FE01EF55FF4F608171818281C1
:10516000938120E03FEF4FE757E40E9411031816A8
:105170000CF043C0FE01EB55FF4F608171818281CD
:10518000938120E030E040E251E40E941702DC010C
:10519000CB018E0101561F4FBC01CD010E94410081
:1051A000DC01CB01F801918380831FC0FE01E3562F
:1051B000FF4F80E991E091838083FE01E356FF4F2A
:1051C000808191810197F1F7FE01E356FF4F9183B2
:1051D0008083DE01A156BF4FFE01E156FF4F808163
:1051E0009181019711969C938E93FE01E156FF4F9A
:1051F000808191810097D1F627C08E0101561F4F03
:10520000FE01EF55FF4F60817181828193810E9481
:105210004100DC01CB01F80191838083DE01A556BA
:10522000BF4FFE01E156FF4F808191818D939C938A
:10523000FE01E556FF4F808191810197F1F7FE0154
:10524000E556FF4F91838083DE01AF50BF4FFE01D3
:10525000EF50FF4F80818F5F8C93FE01E55FFE4F23
:105260009081FE01EF50FF4F8081891708F40ECE28
:10527000FE01EE50FF4F80818823D1F40E94282444
:1052800080EF90E00E94972381E060E00E94C223BB
:10529000FE01EF50FF4F8081882F90E001960E9421
:1052A000052480E091E00E9497230E94F61710C029
:1052B0000E94282485E091E00E94972381E060E02D
:1052C0000E94C22385E191E00E9497230E94F61775
:1052D0000E9428240C949934FE01E250FF4F8081F3
:1052E0008D3211F00C9499340E9428248AE191E0C7
:1052F0000E94972381E060E00E94C22385E291E052
:105300000E9497230E94F617FE01E250FF4F808310
:10531000FE01E956FF4F80E090E0AAEFB3E48083FE
:105320009183A283B3838E010D561F4FFE01E95670
:10533000FF4F608171818281938120E030E04AE7F4
:1053400055E40E941702DC01CB01F80180839183B0
:10535000A283B383FE01ED56FF4F6081718182818C
:10536000938120E030E040E85FE30E9471038823EE
:1053700044F4FE01EF56FF4F81E090E0918380837B
:1053800064C0FE01ED56FF4F60817181828193817F
:1053900020E03FEF4FE757E40E94110318160CF08E
:1053A00043C0FE01E956FF4F608171818281938184
:1053B00020E030E040E251E40E941702DC01CB0122
:1053C0008E010F561F4FBC01CD010E944100DC0130
:1053D000CB01F801918380831FC0FE01E157FF4F8D
:1053E00080E991E091838083FE01E157FF4F808146
:1053F00091810197F1F7FE01E157FF4F918380837F
:10540000DE01AF56BF4FFE01EF56FF4F8081918105
:10541000019711969C938E93FE01EF56FF4F80816A
:1054200091810097D1F628C08E010F561F4FFE01C3
:10543000ED56FF4F60817181828193810E9441000E
:10544000DC01CB01F80191838083DE01A357BF4FBC
:10545000FE01EF56FF4F8081918111969C938E93B0
:10546000FE01E357FF4F808191810197F1F7FE0123
:10547000E357FF4F91838083FE01E250FF4F80810D
:105480008B3211F00C9403340E94282488E391E0BD
:105490000E949723CE018C5E9E4F0E949B05FE01C9
:1054A000E751FF4F8083FE01E751FF4F808183303A
:1054B00030F4FE01E751FF4F8081882321F480E121
:1054C0000E9470064CCAFE01E751FF4F8081813077
:1054D00049F4FE01E851FF4FDE01AC5EBE4F8C91F6
:1054E000808322C0DE01A851BF4FFE01EC5EFE4F5B
:1054F00081818C93FE01EC5EFE4F8081882F90E0CD
:105500009C01220F331FC901880F991F880F991F13
:10551000820F931F982FDE01A851BF4FFE01E85163
:10552000FF4F8081890F8C930E942824FE01E8514F
:10553000FF4F8081813120F080E10E9470060FCA08
:105540000E94282485E491E00E949723CE01895E81
:105550009E4F0E949B05FE01E951FF4F8083FE0193
:10556000E951FF4F8081873030F4FE01E951FF4F50
:105570008081882321F486E00E947006F0C9FE0134
:10558000EA51FF4F85E08083FE01E951FF4F8081A2
:105590008150FE01E552FF4F808330C0FE01EA5189
:1055A000FF4F8081482F552747FD5095FE01E5525A
:1055B000FF4F8081282F332727FD3095CE01895E4C
:1055C0009E4FFC01E20FF31F2081CE01895E9E4FAA
:1055D000FC01E40FF51F2083DE01A552BF4FFE0141
:1055E000E552FF4F808181508C93DE01AA51BF4F5D
:1055F000FE01EA51FF4F808181508C93FE01E552FC
:10560000FF4F8081882354F6FE01E752FF4F11823D
:10561000108218C0FE01E752FF4F20813181CE0178
:10562000895E9E4FFC01E20FF31F1082DE01A7523C
:10563000BF4FFE01E752FF4F808191810196119685
:105640009C938E93FE01E951FF4F8081282F30E01B
:1056500086E090E0AC01421B530B9A01FE01E75239
:10566000FF4F8081918182179307A4F29E01235EF0
:105670003E4F60E070E080E090E0A9010E943214AB
:10568000FE01E35EFE4F80819181982F8827FE0105
:10569000E35EFE4F91838083FE01E757FF4F80E07A
:1056A00090E0A0E2B1E480839183A283B3838E0172
:1056B0000B571F4FFE01E757FF4F608171818281B9
:1056C000938120E030E04AE755E40E941702DC01B4
:1056D000CB01F80180839183A283B383FE01EB5752
:1056E000FF4F608171818281938120E030E040E84A
:1056F0005FE30E947103882344F4FE01ED57FF4FDE
:1057000081E090E09183808364C0FE01EB57FF4FFE
:10571000608171818281938120E03FEF4FE757E400
:105720000E94110318160CF043C0FE01E757FF4F0B
:10573000608171818281938120E030E040E251E418
:105740000E941702DC01CB018E010D571F4FBC01D7
:10575000CD010E944100DC01CB01F80191838083DF
:105760001FC0FE01EF57FF4F80E991E091838083D6
:10577000FE01EF57FF4F808191810197F1F7FE0104
:10578000EF57FF4F91838083DE01AD57BF4FFE017E
:10579000ED57FF4F80819181019711969C938E93D5
:1057A000FE01ED57FF4F808191810097D1F627C010
:1057B0008E010D571F4FFE01EB57FF4F6081718126
:1057C000828193810E944100DC01CB01F801918329
:1057D0008083DE01A158BF4FFE01ED57FF4F80814E
:1057E00091818D939C93FE01E158FF4F80819181BF
:1057F0000197F1F7FE01E158FF4F918380839E01ED
:10580000235E3E4F61E070E080E090E0A9010E94DD
:105810003214FE01E852FF4F1082FE01E952FF4FA1
:10582000108202C1FE01E952FF4F8081282F30E033
:10583000FE01E35EFE4F80819181820F931FAC01D8
:1058400060E070E0FE01E852FF4F8081882F90E019
:105850009C012F5F3F4FCE01895E9E4FFC01E20FFE
:10586000F31F8081A82FFE01E852FF4F8081282F6F
:1058700030E0CE01895E9E4FFC01E20FF31F808174
:10588000882F90E082959295907F9827807F982727
:105890008A2B282FCB01BA01422F0E94D413FE017C
:1058A000E558FF4F80E090E0A0E2B1E4808391836F
:1058B000A283B3838E0109581F4FFE01E558FF4FA5
:1058C000608171818281938120E030E04AE755E474
:1058D0000E941702DC01CB01F80180839183A2832F
:1058E000B383FE01E958FF4F60817181828193810A
:1058F00020E030E040E85FE30E947103882344F435
:10590000FE01EB58FF4F81E090E09183808364C0FB
:10591000FE01E958FF4F608171818281938120E00F
:105920003FEF4FE757E40E94110318160CF043C0F5
:10593000FE01E558FF4F608171818281938120E0F3
:1059400030E040E251E40E941702DC01CB018E01FD
:105950000B581F4FBC01CD010E944100DC01CB015F
:10596000F801918380831FC0FE01ED58FF4F80E94D
:1059700091E091838083FE01ED58FF4F80819181FA
:105980000197F1F7FE01ED58FF4F91838083DE010F
:10599000AB58BF4FFE01EB58FF4F808191810197BB
:1059A00011969C938E93FE01EB58FF4F808191815D
:1059B0000097D1F627C08E010B581F4FFE01E95802
:1059C000FF4F60817181828193810E944100DC01DF
:1059D000CB01F80191838083DE01AF58BF4FFE01F8
:1059E000EB58FF4F808191818D939C93FE01EF587E
:1059F000FF4F808191810197F1F7FE01EF58FF4F32
:105A000091838083DE01A852BF4FFE01E852FF4F11
:105A100080818E5F8C93DE01A952BF4FFE01E95257
:105A2000FF4F80818F5F8C93FE01E852FF4F808192
:105A3000863008F4F7CEFE01E35EFE4F808191814F
:105A40000396FE01E35EFE4F91838083DE01AC513D
:105A5000BF4FFE01E35EFE4F808191818D939C9349
:105A6000FE01E35EFE4F808191810296FE01E35EBE
:105A7000FE4F918380830E94282483E591E00E9459
:105A8000972381E060E00E94C22384E691E00E94B7
:105A900097230E94F617FE01ED51FF4F1082FE0181
:105AA000EE51FF4F1082CE01815E9E4F20E1FC013E
:105AB000DF01422F1D924A95E9F7FE01EF51FF4F9A
:105AC0001082FE01E052FF4F1082FE01E152FF4FB3
:105AD00089E68083FE01E252FF4F8FE680830E94B9
